{
  "contractName": "Peg",
  "abi": [
    {
      "inputs": [
        {
          "name": "relayerAddress",
          "type": "address"
        }
      ],
      "payable": false,
      "stateMutability": "nonpayable",
      "type": "constructor",
      "signature": "constructor"
    },
    {
      "payable": true,
      "stateMutability": "payable",
      "type": "fallback"
    },
    {
      "anonymous": false,
      "inputs": [
        {
          "indexed": true,
          "name": "user",
          "type": "address"
        },
        {
          "indexed": false,
          "name": "amount",
          "type": "uint256"
        }
      ],
      "name": "Deposit",
      "type": "event",
      "signature": "0xe1fffcc4923d04b559f4d29a8bfc6cda04eb5b0d3c460751c2402c5c5cc9109c"
    },
    {
      "anonymous": false,
      "inputs": [
        {
          "indexed": true,
          "name": "user",
          "type": "address"
        },
        {
          "indexed": false,
          "name": "amount",
          "type": "uint256"
        }
      ],
      "name": "Release",
      "type": "event",
      "signature": "0xf6334794522b9db534a812aaae1af828a2e96aac68473b58e36d7d0bfd67477b"
    },
    {
      "constant": true,
      "inputs": [
        {
          "name": "user",
          "type": "address"
        }
      ],
      "name": "getBalance",
      "outputs": [
        {
          "name": "",
          "type": "uint256"
        }
      ],
      "payable": false,
      "stateMutability": "view",
      "type": "function",
      "signature": "0xf8b2cb4f"
    },
    {
      "constant": false,
      "inputs": [
        {
          "name": "user",
          "type": "address"
        },
        {
          "name": "amount",
          "type": "uint256"
        }
      ],
      "name": "release",
      "outputs": [],
      "payable": false,
      "stateMutability": "nonpayable",
      "type": "function",
      "signature": "0x0357371d"
    }
  ],
  "bytecode": "0x608060405234801561001057600080fd5b506040516020806104158339810180604052602081101561003057600080fd5b8101908080519060200190929190505050806000806101000a81548173ffffffffffffffffffffffffffffffffffffffff021916908373ffffffffffffffffffffffffffffffffffffffff16021790555050610384806100916000396000f3fe60806040526004361061004c576000357c0100000000000000000000000000000000000000000000000000000000900463ffffffff1680630357371d14610058578063f8b2cb4f146100b3575b6100563334610118565b005b34801561006457600080fd5b506100b16004803603604081101561007b57600080fd5b81019080803573ffffffffffffffffffffffffffffffffffffffff169060200190929190803590602001909291905050506101b7565b005b3480156100bf57600080fd5b50610102600480360360208110156100d657600080fd5b81019080803573ffffffffffffffffffffffffffffffffffffffff16906020019092919050505061030f565b6040518082815260200191505060405180910390f35b80600160008473ffffffffffffffffffffffffffffffffffffffff1673ffffffffffffffffffffffffffffffffffffffff168152602001908152602001600020600082825401925050819055508173ffffffffffffffffffffffffffffffffffffffff167fe1fffcc4923d04b559f4d29a8bfc6cda04eb5b0d3c460751c2402c5c5cc9109c826040518082815260200191505060405180910390a25050565b6000809054906101000a900473ffffffffffffffffffffffffffffffffffffffff1673ffffffffffffffffffffffffffffffffffffffff163373ffffffffffffffffffffffffffffffffffffffff1614151561021257600080fd5b8061021c8361030f565b1015151561022957600080fd5b80600160008473ffffffffffffffffffffffffffffffffffffffff1673ffffffffffffffffffffffffffffffffffffffff168152602001908152602001600020600082825403925050819055508173ffffffffffffffffffffffffffffffffffffffff166108fc829081150290604051600060405180830381858888f193505050501580156102bc573d6000803e3d6000fd5b508173ffffffffffffffffffffffffffffffffffffffff167ff6334794522b9db534a812aaae1af828a2e96aac68473b58e36d7d0bfd67477b826040518082815260200191505060405180910390a25050565b6000600160008373ffffffffffffffffffffffffffffffffffffffff1673ffffffffffffffffffffffffffffffffffffffff16815260200190815260200160002054905091905056fea165627a7a723058204468bab310802afa4ed210c15d7f33d88aba01fd87109cf4b474a06e570ce9130029",
  "source": "pragma solidity ^0.5.0;\n\ncontract Peg {\n    address relayer;\n\n    mapping (address => uint256) private balances;\n\n    function getBalance(address user)\n        public view returns (uint256)\n    {\n        return balances[user];\n    }\n\n    modifier onlyRelayer() {\n        require(msg.sender == relayer);\n        _;\n    }\n\n    constructor(address relayerAddress)\n        public\n    {\n        relayer = relayerAddress;\n    }\n\n    function()\n        external payable\n    {\n        deposit(msg.sender, msg.value);\n    }\n\n    function deposit(address user, uint256 amount)\n        internal\n    {\n        balances[user] += amount;\n\n        emit Deposit(user, amount);\n    }\n\n    function release(address payable user, uint256 amount)\n        external onlyRelayer\n    {\n        require(getBalance(user) >= amount);\n\n        balances[user] -= amount;\n\n        user.transfer(amount);\n\n        emit Release(user, amount);\n    }\n\n    event Deposit(address indexed user, uint256 amount);\n    event Release(address indexed user, uint256 amount);\n}\n",
  "sourcePath": "/home/sevenflash/apps/ethereum-eos/contracts/Peg.sol",
  "compiler": {
    "name": "solc",
    "version": "0.5.0+commit.1d4f565a.Emscripten.clang"
  },
  "schemaVersion": "3.0.0",
  "updatedAt": "2018-12-28T14:14:58.626Z",
  "devdoc": {
    "methods": {}
  },
  "userdoc": {
    "methods": {}
  }
}